{
  "address": "0xd595461EAfBfcfCa68b81e95a5AEf79356A4705C",
  "abi": [
    {
      "inputs": [
        {
          "internalType": "string",
          "name": "name_",
          "type": "string"
        },
        {
          "internalType": "string",
          "name": "symbol_",
          "type": "string"
        },
        {
          "internalType": "uint256",
          "name": "initialSupply_",
          "type": "uint256"
        },
        {
          "internalType": "address",
          "name": "admin_",
          "type": "address"
        }
      ],
      "stateMutability": "nonpayable",
      "type": "constructor"
    },
    {
      "inputs": [
        {
          "internalType": "address",
          "name": "spender",
          "type": "address"
        },
        {
          "internalType": "uint256",
          "name": "allowance",
          "type": "uint256"
        },
        {
          "internalType": "uint256",
          "name": "needed",
          "type": "uint256"
        }
      ],
      "name": "ERC20InsufficientAllowance",
      "type": "error"
    },
    {
      "inputs": [
        {
          "internalType": "address",
          "name": "sender",
          "type": "address"
        },
        {
          "internalType": "uint256",
          "name": "balance",
          "type": "uint256"
        },
        {
          "internalType": "uint256",
          "name": "needed",
          "type": "uint256"
        }
      ],
      "name": "ERC20InsufficientBalance",
      "type": "error"
    },
    {
      "inputs": [
        {
          "internalType": "address",
          "name": "approver",
          "type": "address"
        }
      ],
      "name": "ERC20InvalidApprover",
      "type": "error"
    },
    {
      "inputs": [
        {
          "internalType": "address",
          "name": "receiver",
          "type": "address"
        }
      ],
      "name": "ERC20InvalidReceiver",
      "type": "error"
    },
    {
      "inputs": [
        {
          "internalType": "address",
          "name": "sender",
          "type": "address"
        }
      ],
      "name": "ERC20InvalidSender",
      "type": "error"
    },
    {
      "inputs": [
        {
          "internalType": "address",
          "name": "spender",
          "type": "address"
        }
      ],
      "name": "ERC20InvalidSpender",
      "type": "error"
    },
    {
      "inputs": [],
      "name": "EnforcedPause",
      "type": "error"
    },
    {
      "inputs": [],
      "name": "ExpectedPause",
      "type": "error"
    },
    {
      "inputs": [
        {
          "internalType": "address",
          "name": "owner",
          "type": "address"
        }
      ],
      "name": "OwnableInvalidOwner",
      "type": "error"
    },
    {
      "inputs": [
        {
          "internalType": "address",
          "name": "account",
          "type": "address"
        }
      ],
      "name": "OwnableUnauthorizedAccount",
      "type": "error"
    },
    {
      "anonymous": false,
      "inputs": [
        {
          "indexed": true,
          "internalType": "address",
          "name": "owner",
          "type": "address"
        },
        {
          "indexed": true,
          "internalType": "address",
          "name": "spender",
          "type": "address"
        },
        {
          "indexed": false,
          "internalType": "uint256",
          "name": "value",
          "type": "uint256"
        }
      ],
      "name": "Approval",
      "type": "event"
    },
    {
      "anonymous": false,
      "inputs": [
        {
          "indexed": true,
          "internalType": "address",
          "name": "previousOwner",
          "type": "address"
        },
        {
          "indexed": true,
          "internalType": "address",
          "name": "newOwner",
          "type": "address"
        }
      ],
      "name": "OwnershipTransferred",
      "type": "event"
    },
    {
      "anonymous": false,
      "inputs": [
        {
          "indexed": false,
          "internalType": "address",
          "name": "account",
          "type": "address"
        }
      ],
      "name": "Paused",
      "type": "event"
    },
    {
      "anonymous": false,
      "inputs": [
        {
          "indexed": true,
          "internalType": "address",
          "name": "from",
          "type": "address"
        },
        {
          "indexed": false,
          "internalType": "uint256",
          "name": "amount",
          "type": "uint256"
        },
        {
          "indexed": false,
          "internalType": "string",
          "name": "reason",
          "type": "string"
        }
      ],
      "name": "TokensBurned",
      "type": "event"
    },
    {
      "anonymous": false,
      "inputs": [
        {
          "indexed": true,
          "internalType": "address",
          "name": "to",
          "type": "address"
        },
        {
          "indexed": false,
          "internalType": "uint256",
          "name": "amount",
          "type": "uint256"
        },
        {
          "indexed": false,
          "internalType": "string",
          "name": "reason",
          "type": "string"
        }
      ],
      "name": "TokensMinted",
      "type": "event"
    },
    {
      "anonymous": false,
      "inputs": [
        {
          "indexed": true,
          "internalType": "address",
          "name": "from",
          "type": "address"
        },
        {
          "indexed": true,
          "internalType": "address",
          "name": "to",
          "type": "address"
        },
        {
          "indexed": false,
          "internalType": "string",
          "name": "reason",
          "type": "string"
        }
      ],
      "name": "TransactionBlocked",
      "type": "event"
    },
    {
      "anonymous": false,
      "inputs": [
        {
          "indexed": true,
          "internalType": "address",
          "name": "from",
          "type": "address"
        },
        {
          "indexed": true,
          "internalType": "address",
          "name": "to",
          "type": "address"
        },
        {
          "indexed": false,
          "internalType": "uint256",
          "name": "value",
          "type": "uint256"
        }
      ],
      "name": "Transfer",
      "type": "event"
    },
    {
      "anonymous": false,
      "inputs": [
        {
          "indexed": false,
          "internalType": "address",
          "name": "account",
          "type": "address"
        }
      ],
      "name": "Unpaused",
      "type": "event"
    },
    {
      "anonymous": false,
      "inputs": [
        {
          "indexed": true,
          "internalType": "address",
          "name": "account",
          "type": "address"
        },
        {
          "indexed": false,
          "internalType": "bool",
          "name": "status",
          "type": "bool"
        }
      ],
      "name": "WhitelistUpdated",
      "type": "event"
    },
    {
      "inputs": [
        {
          "internalType": "address",
          "name": "account",
          "type": "address"
        }
      ],
      "name": "addToWhitelist",
      "outputs": [],
      "stateMutability": "nonpayable",
      "type": "function"
    },
    {
      "inputs": [
        {
          "internalType": "address",
          "name": "owner",
          "type": "address"
        },
        {
          "internalType": "address",
          "name": "spender",
          "type": "address"
        }
      ],
      "name": "allowance",
      "outputs": [
        {
          "internalType": "uint256",
          "name": "",
          "type": "uint256"
        }
      ],
      "stateMutability": "view",
      "type": "function"
    },
    {
      "inputs": [
        {
          "internalType": "address",
          "name": "spender",
          "type": "address"
        },
        {
          "internalType": "uint256",
          "name": "value",
          "type": "uint256"
        }
      ],
      "name": "approve",
      "outputs": [
        {
          "internalType": "bool",
          "name": "",
          "type": "bool"
        }
      ],
      "stateMutability": "nonpayable",
      "type": "function"
    },
    {
      "inputs": [
        {
          "internalType": "address",
          "name": "account",
          "type": "address"
        }
      ],
      "name": "balanceOf",
      "outputs": [
        {
          "internalType": "uint256",
          "name": "",
          "type": "uint256"
        }
      ],
      "stateMutability": "view",
      "type": "function"
    },
    {
      "inputs": [
        {
          "internalType": "address",
          "name": "from",
          "type": "address"
        },
        {
          "internalType": "uint256",
          "name": "amount",
          "type": "uint256"
        }
      ],
      "name": "burn",
      "outputs": [],
      "stateMutability": "nonpayable",
      "type": "function"
    },
    {
      "inputs": [],
      "name": "decimals",
      "outputs": [
        {
          "internalType": "uint8",
          "name": "",
          "type": "uint8"
        }
      ],
      "stateMutability": "view",
      "type": "function"
    },
    {
      "inputs": [
        {
          "internalType": "uint256",
          "name": "index",
          "type": "uint256"
        }
      ],
      "name": "getBlockedTransaction",
      "outputs": [
        {
          "internalType": "address",
          "name": "from",
          "type": "address"
        },
        {
          "internalType": "address",
          "name": "to",
          "type": "address"
        },
        {
          "internalType": "uint256",
          "name": "amount",
          "type": "uint256"
        },
        {
          "internalType": "string",
          "name": "reason",
          "type": "string"
        },
        {
          "internalType": "uint256",
          "name": "timestamp",
          "type": "uint256"
        }
      ],
      "stateMutability": "view",
      "type": "function"
    },
    {
      "inputs": [],
      "name": "getBlockedTransactionCount",
      "outputs": [
        {
          "internalType": "uint256",
          "name": "",
          "type": "uint256"
        }
      ],
      "stateMutability": "view",
      "type": "function"
    },
    {
      "inputs": [],
      "name": "getWhitelistCount",
      "outputs": [
        {
          "internalType": "uint256",
          "name": "",
          "type": "uint256"
        }
      ],
      "stateMutability": "view",
      "type": "function"
    },
    {
      "inputs": [],
      "name": "getWhitelistedAddresses",
      "outputs": [
        {
          "internalType": "address[]",
          "name": "",
          "type": "address[]"
        }
      ],
      "stateMutability": "view",
      "type": "function"
    },
    {
      "inputs": [
        {
          "internalType": "address",
          "name": "account",
          "type": "address"
        }
      ],
      "name": "isWhitelisted",
      "outputs": [
        {
          "internalType": "bool",
          "name": "",
          "type": "bool"
        }
      ],
      "stateMutability": "view",
      "type": "function"
    },
    {
      "inputs": [
        {
          "internalType": "address",
          "name": "to",
          "type": "address"
        },
        {
          "internalType": "uint256",
          "name": "amount",
          "type": "uint256"
        }
      ],
      "name": "mint",
      "outputs": [],
      "stateMutability": "nonpayable",
      "type": "function"
    },
    {
      "inputs": [],
      "name": "name",
      "outputs": [
        {
          "internalType": "string",
          "name": "",
          "type": "string"
        }
      ],
      "stateMutability": "view",
      "type": "function"
    },
    {
      "inputs": [],
      "name": "owner",
      "outputs": [
        {
          "internalType": "address",
          "name": "",
          "type": "address"
        }
      ],
      "stateMutability": "view",
      "type": "function"
    },
    {
      "inputs": [],
      "name": "pause",
      "outputs": [],
      "stateMutability": "nonpayable",
      "type": "function"
    },
    {
      "inputs": [],
      "name": "paused",
      "outputs": [
        {
          "internalType": "bool",
          "name": "",
          "type": "bool"
        }
      ],
      "stateMutability": "view",
      "type": "function"
    },
    {
      "inputs": [
        {
          "internalType": "address",
          "name": "account",
          "type": "address"
        }
      ],
      "name": "removeFromWhitelist",
      "outputs": [],
      "stateMutability": "nonpayable",
      "type": "function"
    },
    {
      "inputs": [],
      "name": "renounceOwnership",
      "outputs": [],
      "stateMutability": "nonpayable",
      "type": "function"
    },
    {
      "inputs": [],
      "name": "symbol",
      "outputs": [
        {
          "internalType": "string",
          "name": "",
          "type": "string"
        }
      ],
      "stateMutability": "view",
      "type": "function"
    },
    {
      "inputs": [],
      "name": "totalSupply",
      "outputs": [
        {
          "internalType": "uint256",
          "name": "",
          "type": "uint256"
        }
      ],
      "stateMutability": "view",
      "type": "function"
    },
    {
      "inputs": [
        {
          "internalType": "address",
          "name": "to",
          "type": "address"
        },
        {
          "internalType": "uint256",
          "name": "value",
          "type": "uint256"
        }
      ],
      "name": "transfer",
      "outputs": [
        {
          "internalType": "bool",
          "name": "",
          "type": "bool"
        }
      ],
      "stateMutability": "nonpayable",
      "type": "function"
    },
    {
      "inputs": [
        {
          "internalType": "address",
          "name": "from",
          "type": "address"
        },
        {
          "internalType": "address",
          "name": "to",
          "type": "address"
        },
        {
          "internalType": "uint256",
          "name": "value",
          "type": "uint256"
        }
      ],
      "name": "transferFrom",
      "outputs": [
        {
          "internalType": "bool",
          "name": "",
          "type": "bool"
        }
      ],
      "stateMutability": "nonpayable",
      "type": "function"
    },
    {
      "inputs": [
        {
          "internalType": "address",
          "name": "newOwner",
          "type": "address"
        }
      ],
      "name": "transferOwnership",
      "outputs": [],
      "stateMutability": "nonpayable",
      "type": "function"
    },
    {
      "inputs": [
        {
          "internalType": "address",
          "name": "to",
          "type": "address"
        },
        {
          "internalType": "uint256",
          "name": "amount",
          "type": "uint256"
        }
      ],
      "name": "tryTransfer",
      "outputs": [
        {
          "internalType": "bool",
          "name": "success",
          "type": "bool"
        }
      ],
      "stateMutability": "nonpayable",
      "type": "function"
    },
    {
      "inputs": [],
      "name": "unpause",
      "outputs": [],
      "stateMutability": "nonpayable",
      "type": "function"
    }
  ],
  "transactionHash": "0xd0043d947fcf865b28e7edbd4652fe4ed7161c0f8834a4a9d8bd529c93b8347d",
  "args": [
    "RWA ETF Gold",
    "RWAG",
    "1000000000000000000000000",
    "0xf4B9B94F3a8Eeeb0957b221f5249F50d9ef89420"
  ],
  "numDeployments": 1,
  "solcInputHash": "fd721124341d1fdc797031851ba582dd",
  "bytecode": "0x608060405234801561001057600080fd5b506040516120cd3803806120cd83398101604081905261002f9161062f565b808484600361003e838261074a565b50600461004b828261074a565b5050506001600160a01b03811661007d57604051631e4fbdf760e01b8152600060048201526024015b60405180910390fd5b61008681610274565b506005805460ff60a01b19169055816100ed5760405162461bcd60e51b8152602060048201526024808201527f525741546f6b656e3a20696e697469616c20737570706c79206d7573742062656044820152630203e20360e41b6064820152608401610074565b6001600160a01b0381166101525760405162461bcd60e51b815260206004820152602660248201527f525741546f6b656e3a2061646d696e2063616e6e6f74206265207a65726f206160448201526564647265737360d01b6064820152608401610074565b6001600160a01b0381166000818152600660209081526040808320805460ff1916600190811790915560078054808301825594527fa66cc928b5edb82af9bd49922954155ab7b0942694bea4ce44661d9a8736c68890930180546001600160a01b03191685179055519182527ff93f9a76c1bf3444d22400a00cb9fe990e6abe9dbb333fda48859cfee864543d910160405180910390a26101f381836102c6565b806001600160a01b03167f9d89e36eadf856db0ad9ffb5a569e07f95634dddd9501141ecf04820484ad0dc836040516102639181526040602082018190526016908201527f496e697469616c20737570706c79206d696e74696e6700000000000000000000606082015260800190565b60405180910390a25050505061082f565b600580546001600160a01b038381166001600160a01b0319831681179093556040519116919082907f8be0079c531659141344cd1fd0a4f28419497f9722a3daafe3b4186f6b6457e090600090a35050565b6001600160a01b0382166102f05760405163ec442f0560e01b815260006004820152602401610074565b6102fc60008383610300565b5050565b610308610419565b6001600160a01b0383161580159061032857506001600160a01b03821615155b15610409576001600160a01b03831660009081526006602052604090205460ff166103955760405162461bcd60e51b815260206004820181905260248201527f525741546f6b656e3a2073656e646572206e6f742077686974656c69737465646044820152606401610074565b6001600160a01b03821660009081526006602052604090205460ff166104095760405162461bcd60e51b815260206004820152602360248201527f525741546f6b656e3a20726563697069656e74206e6f742077686974656c69736044820152621d195960ea1b6064820152608401610074565b61041483838361044c565b505050565b61042c600554600160a01b900460ff1690565b1561044a5760405163d93c066560e01b815260040160405180910390fd5b565b6001600160a01b03831661047757806002600082825461046c9190610808565b909155506104e99050565b6001600160a01b038316600090815260208190526040902054818110156104ca5760405163391434e360e21b81526001600160a01b03851660048201526024810182905260448101839052606401610074565b6001600160a01b03841660009081526020819052604090209082900390555b6001600160a01b03821661050557600280548290039055610524565b6001600160a01b03821660009081526020819052604090208054820190555b816001600160a01b0316836001600160a01b03167fddf252ad1be2c89b69c2b068fc378daa952ba7f163c4a11628f55a4df523b3ef8360405161056991815260200190565b60405180910390a3505050565b634e487b7160e01b600052604160045260246000fd5b600082601f83011261059d57600080fd5b81516001600160401b038111156105b6576105b6610576565b604051601f8201601f19908116603f011681016001600160401b03811182821017156105e4576105e4610576565b6040528181528382016020018510156105fc57600080fd5b60005b8281101561061b576020818601810151838301820152016105ff565b506000918101602001919091529392505050565b6000806000806080858703121561064557600080fd5b84516001600160401b0381111561065b57600080fd5b6106678782880161058c565b602087015190955090506001600160401b0381111561068557600080fd5b6106918782880161058c565b60408701516060880151919550935090506001600160a01b03811681146106b757600080fd5b939692955090935050565b600181811c908216806106d657607f821691505b6020821081036106f657634e487b7160e01b600052602260045260246000fd5b50919050565b601f82111561041457806000526020600020601f840160051c810160208510156107235750805b601f840160051c820191505b81811015610743576000815560010161072f565b5050505050565b81516001600160401b0381111561076357610763610576565b6107778161077184546106c2565b846106fc565b6020601f8211600181146107ab57600083156107935750848201515b600019600385901b1c1916600184901b178455610743565b600084815260208120601f198516915b828110156107db57878501518255602094850194600190920191016107bb565b50848210156107f95786840151600019600387901b60f8161c191681555b50505050600190811b01905550565b8082018082111561082957634e487b7160e01b600052601160045260246000fd5b92915050565b61188f8061083e6000396000f3fe608060405234801561001057600080fd5b50600436106101735760003560e01c806370a08231116100de57806396deb4f911610097578063bebca73a11610071578063bebca73a1461032d578063dd62ed3e14610335578063e43252d71461036e578063f2fde38b1461038157600080fd5b806396deb4f9146102e35780639dc29fac14610307578063a9059cbb1461031a57600080fd5b806370a0823114610274578063715018a61461029d5780638456cb59146102a55780638ab1d681146102ad5780638da5cb5b146102c057806395d89b41146102db57600080fd5b80633af32abf116101305780633af32abf146101fc5780633edff20f146102285780633f4ba83a1461023057806340c10f191461023a5780635c975abb1461024d5780636d0280271461025f57600080fd5b8063010a7d651461017857806306fdde03146101a0578063095ea7b3146101b557806318160ddd146101c857806323b872dd146101da578063313ce567146101ed575b600080fd5b61018b610186366004611479565b610394565b60405190151581526020015b60405180910390f35b6101a86104b9565b60405161019791906114e9565b61018b6101c3366004611479565b61054b565b6002545b604051908152602001610197565b61018b6101e8366004611503565b610563565b60405160128152602001610197565b61018b61020a366004611540565b6001600160a01b031660009081526006602052604090205460ff1690565b6007546101cc565b610238610587565b005b610238610248366004611479565b610599565b600554600160a01b900460ff1661018b565b6102676106b2565b604051610197919061155b565b6101cc610282366004611540565b6001600160a01b031660009081526020819052604090205490565b610238610713565b610238610725565b6102386102bb366004611540565b610735565b6005546040516001600160a01b039091168152602001610197565b6101a86108fd565b6102f66102f13660046115a7565b61090c565b6040516101979594939291906115c0565b610238610315366004611479565b610a5a565b61018b610328366004611479565b610b8e565b6008546101cc565b6101cc610343366004611605565b6001600160a01b03918216600090815260016020908152604080832093909416825291909152205490565b61023861037c366004611540565b610b9c565b61023861038f366004611540565b610d0d565b600554600090600160a01b900460ff16156103f2576103ea3384846040518060400160405280601a81526020017f546f6b656e207472616e73666572732061726520706175736564000000000000815250610d4b565b5060006104b3565b3360009081526006602052604090205460ff16610443576103ea3384846040518060400160405280601681526020017514d95b99195c881b9bdd081dda1a5d195b1a5cdd195960521b815250610d4b565b6001600160a01b03831660009081526006602052604090205460ff166104a4576103ea3384846040518060400160405280601981526020017f526563697069656e74206e6f742077686974656c697374656400000000000000815250610d4b565b6104af338484610ecd565b5060015b92915050565b6060600380546104c890611638565b80601f01602080910402602001604051908101604052809291908181526020018280546104f490611638565b80156105415780601f1061051657610100808354040283529160200191610541565b820191906000526020600020905b81548152906001019060200180831161052457829003601f168201915b5050505050905090565b600033610559818585610f31565b5060019392505050565b600033610571858285610f3e565b61057c858585610ecd565b506001949350505050565b61058f610fbc565b610597610fe9565b565b6105a1610fbc565b6001600160a01b03821660009081526006602052604090205460ff166105e25760405162461bcd60e51b81526004016105d990611672565b60405180910390fd5b6000811161063c5760405162461bcd60e51b815260206004820152602160248201527f525741546f6b656e3a206d696e7420616d6f756e74206d757374206265203e206044820152600360fc1b60648201526084016105d9565b610646828261103e565b816001600160a01b03167f9d89e36eadf856db0ad9ffb5a569e07f95634dddd9501141ecf04820484ad0dc826040516106a6918152604060208201819052600d908201526c4f776e6572206d696e74696e6760981b606082015260800190565b60405180910390a25050565b6060600780548060200260200160405190810160405280929190818152602001828054801561054157602002820191906000526020600020905b81546001600160a01b031681526001909101906020018083116106ec575050505050905090565b61071b610fbc565b6105976000611078565b61072d610fbc565b6105976110ca565b61073d610fbc565b6001600160a01b03811660009081526006602052604090205460ff166107a55760405162461bcd60e51b815260206004820152601960248201527f525741546f6b656e3a206e6f742077686974656c69737465640000000000000060448201526064016105d9565b6001600160a01b0381166000908152600660205260408120805460ff19169055600754905b818110156108c057826001600160a01b0316600782815481106107ef576107ef6116b5565b6000918252602090912001546001600160a01b0316036108b85760076108166001846116e1565b81548110610826576108266116b5565b600091825260209091200154600780546001600160a01b039092169183908110610852576108526116b5565b9060005260206000200160006101000a8154816001600160a01b0302191690836001600160a01b031602179055506007805480610891576108916116f4565b600082815260209020810160001990810180546001600160a01b03191690550190556108c0565b6001016107ca565b50604051600081526001600160a01b038316907ff93f9a76c1bf3444d22400a00cb9fe990e6abe9dbb333fda48859cfee864543d906020016106a6565b6060600480546104c890611638565b60008060006060600060098054905086106109695760405162461bcd60e51b815260206004820152601d60248201527f525741546f6b656e3a20696e646578206f7574206f6620626f756e647300000060448201526064016105d9565b60006009878154811061097e5761097e6116b5565b6000918252602090912060059091020180546001820154600283015460048401546003850180549596506001600160a01b03948516959390941693919282906109c690611638565b80601f01602080910402602001604051908101604052809291908181526020018280546109f290611638565b8015610a3f5780601f10610a1457610100808354040283529160200191610a3f565b820191906000526020600020905b815481529060010190602001808311610a2257829003601f168201915b50505050509150955095509550955095505091939590929450565b610a62610fbc565b6001600160a01b03821660009081526006602052604090205460ff16610aca5760405162461bcd60e51b815260206004820181905260248201527f525741546f6b656e3a20746172676574206e6f742077686974656c697374656460448201526064016105d9565b60008111610b245760405162461bcd60e51b815260206004820152602160248201527f525741546f6b656e3a206275726e20616d6f756e74206d757374206265203e206044820152600360fc1b60648201526084016105d9565b610b2e828261110d565b816001600160a01b03167ffad31924d655455395c87544c8aa1ffdb5a7505a22a3c2e03f28003b6556a75f826040516106a6918152604060208201819052600d908201526c4f776e6572206275726e696e6760981b606082015260800190565b600033610559818585610ecd565b610ba4610fbc565b6001600160a01b038116610c0a5760405162461bcd60e51b815260206004820152602760248201527f525741546f6b656e3a2063616e6e6f742077686974656c697374207a65726f206044820152666164647265737360c81b60648201526084016105d9565b6001600160a01b03811660009081526006602052604090205460ff1615610c735760405162461bcd60e51b815260206004820152601d60248201527f525741546f6b656e3a20616c72656164792077686974656c697374656400000060448201526064016105d9565b6001600160a01b0381166000818152600660209081526040808320805460ff1916600190811790915560078054808301825594527fa66cc928b5edb82af9bd49922954155ab7b0942694bea4ce44661d9a8736c68890930180546001600160a01b03191685179055519182527ff93f9a76c1bf3444d22400a00cb9fe990e6abe9dbb333fda48859cfee864543d910160405180910390a250565b610d15610fbc565b6001600160a01b038116610d3f57604051631e4fbdf760e01b8152600060048201526024016105d9565b610d4881611078565b50565b60088054906000610d5b8361170a565b90915550506040805160a0810182526001600160a01b038087168252858116602083019081529282018581526060830185815242608085015260098054600181018255600091909152845160059091027f6e1540171b6c0c960b71a7020d9f60077f6af931a8bbf590da0223dacf75c7af810180549286166001600160a01b031993841617815596517f6e1540171b6c0c960b71a7020d9f60077f6af931a8bbf590da0223dacf75c7b0820180549190961692169190911790935590517f6e1540171b6c0c960b71a7020d9f60077f6af931a8bbf590da0223dacf75c7b1830155519192917f6e1540171b6c0c960b71a7020d9f60077f6af931a8bbf590da0223dacf75c7b290910190610e6f9082611787565b50608082015181600401555050826001600160a01b0316846001600160a01b03167f43005f2142a7f664ca6e8caa77625efb6197b475eb7460cd38f7e6d5c091074e83604051610ebf91906114e9565b60405180910390a350505050565b6001600160a01b038316610ef757604051634b637e8f60e11b8152600060048201526024016105d9565b6001600160a01b038216610f215760405163ec442f0560e01b8152600060048201526024016105d9565b610f2c83838361113f565b505050565b610f2c8383836001611217565b6001600160a01b038381166000908152600160209081526040808320938616835292905220546000198114610fb65781811015610fa757604051637dc7a0d960e11b81526001600160a01b038416600482015260248101829052604481018390526064016105d9565b610fb684848484036000611217565b50505050565b6005546001600160a01b031633146105975760405163118cdaa760e01b81523360048201526024016105d9565b610ff16112de565b6005805460ff60a01b191690557f5db9ee0a495bf2e6ff9c91a7834c1ba4fdd244a5e8aa4e537bd38aeae4b073aa335b6040516001600160a01b03909116815260200160405180910390a1565b6001600160a01b0382166110685760405163ec442f0560e01b8152600060048201526024016105d9565b6110746000838361113f565b5050565b600580546001600160a01b038381166001600160a01b0319831681179093556040519116919082907f8be0079c531659141344cd1fd0a4f28419497f9722a3daafe3b4186f6b6457e090600090a35050565b6110d2611308565b6005805460ff60a01b1916600160a01b1790557f62e78cea01bee320cd4e420270b5ea74000d11b0c9f74754ebdbfc544b05a2586110213390565b6001600160a01b03821661113757604051634b637e8f60e11b8152600060048201526024016105d9565b611074826000835b611147611308565b6001600160a01b0383161580159061116757506001600160a01b03821615155b1561120c576001600160a01b03831660009081526006602052604090205460ff166111d45760405162461bcd60e51b815260206004820181905260248201527f525741546f6b656e3a2073656e646572206e6f742077686974656c697374656460448201526064016105d9565b6001600160a01b03821660009081526006602052604090205460ff1661120c5760405162461bcd60e51b81526004016105d990611672565b610f2c838383611333565b6001600160a01b0384166112415760405163e602df0560e01b8152600060048201526024016105d9565b6001600160a01b03831661126b57604051634a1406b160e11b8152600060048201526024016105d9565b6001600160a01b0380851660009081526001602090815260408083209387168352929052208290558015610fb657826001600160a01b0316846001600160a01b03167f8c5be1e5ebec7d5bd14f71427d1e84f3dd0314c0f7b2291e5b200ac8c7c3b92584604051610ebf91815260200190565b600554600160a01b900460ff1661059757604051638dfc202b60e01b815260040160405180910390fd5b600554600160a01b900460ff16156105975760405163d93c066560e01b815260040160405180910390fd5b6001600160a01b03831661135e5780600260008282546113539190611846565b909155506113d09050565b6001600160a01b038316600090815260208190526040902054818110156113b15760405163391434e360e21b81526001600160a01b038516600482015260248101829052604481018390526064016105d9565b6001600160a01b03841660009081526020819052604090209082900390555b6001600160a01b0382166113ec5760028054829003905561140b565b6001600160a01b03821660009081526020819052604090208054820190555b816001600160a01b0316836001600160a01b03167fddf252ad1be2c89b69c2b068fc378daa952ba7f163c4a11628f55a4df523b3ef8360405161145091815260200190565b60405180910390a3505050565b80356001600160a01b038116811461147457600080fd5b919050565b6000806040838503121561148c57600080fd5b6114958361145d565b946020939093013593505050565b6000815180845260005b818110156114c9576020818501810151868301820152016114ad565b506000602082860101526020601f19601f83011685010191505092915050565b6020815260006114fc60208301846114a3565b9392505050565b60008060006060848603121561151857600080fd5b6115218461145d565b925061152f6020850161145d565b929592945050506040919091013590565b60006020828403121561155257600080fd5b6114fc8261145d565b602080825282518282018190526000918401906040840190835b8181101561159c5783516001600160a01b0316835260209384019390920191600101611575565b509095945050505050565b6000602082840312156115b957600080fd5b5035919050565b6001600160a01b038681168252851660208201526040810184905260a0606082018190526000906115f3908301856114a3565b90508260808301529695505050505050565b6000806040838503121561161857600080fd5b6116218361145d565b915061162f6020840161145d565b90509250929050565b600181811c9082168061164c57607f821691505b60208210810361166c57634e487b7160e01b600052602260045260246000fd5b50919050565b60208082526023908201527f525741546f6b656e3a20726563697069656e74206e6f742077686974656c69736040820152621d195960ea1b606082015260800190565b634e487b7160e01b600052603260045260246000fd5b634e487b7160e01b600052601160045260246000fd5b818103818111156104b3576104b36116cb565b634e487b7160e01b600052603160045260246000fd5b60006001820161171c5761171c6116cb565b5060010190565b634e487b7160e01b600052604160045260246000fd5b601f821115610f2c57806000526020600020601f840160051c810160208510156117605750805b601f840160051c820191505b81811015611780576000815560010161176c565b5050505050565b815167ffffffffffffffff8111156117a1576117a1611723565b6117b5816117af8454611638565b84611739565b6020601f8211600181146117e957600083156117d15750848201515b600019600385901b1c1916600184901b178455611780565b600084815260208120601f198516915b8281101561181957878501518255602094850194600190920191016117f9565b50848210156118375786840151600019600387901b60f8161c191681555b50505050600190811b01905550565b808201808211156104b3576104b36116cb56fea264697066735822122087741e3e0502b5df214be1d75420c685bf02da762d3371655b8622015a84bcb664736f6c634300081e0033",
  "devdoc": {
    "author": "QF5208 Course Project",
    "errors": {
      "ERC20InsufficientAllowance(address,uint256,uint256)": [
        {
          "details": "Indicates a failure with the `spender`’s `allowance`. Used in transfers.",
          "params": {
            "allowance": "Amount of tokens a `spender` is allowed to operate with.",
            "needed": "Minimum amount required to perform a transfer.",
            "spender": "Address that may be allowed to operate on tokens without being their owner."
          }
        }
      ],
      "ERC20InsufficientBalance(address,uint256,uint256)": [
        {
          "details": "Indicates an error related to the current `balance` of a `sender`. Used in transfers.",
          "params": {
            "balance": "Current balance for the interacting account.",
            "needed": "Minimum amount required to perform a transfer.",
            "sender": "Address whose tokens are being transferred."
          }
        }
      ],
      "ERC20InvalidApprover(address)": [
        {
          "details": "Indicates a failure with the `approver` of a token to be approved. Used in approvals.",
          "params": {
            "approver": "Address initiating an approval operation."
          }
        }
      ],
      "ERC20InvalidReceiver(address)": [
        {
          "details": "Indicates a failure with the token `receiver`. Used in transfers.",
          "params": {
            "receiver": "Address to which tokens are being transferred."
          }
        }
      ],
      "ERC20InvalidSender(address)": [
        {
          "details": "Indicates a failure with the token `sender`. Used in transfers.",
          "params": {
            "sender": "Address whose tokens are being transferred."
          }
        }
      ],
      "ERC20InvalidSpender(address)": [
        {
          "details": "Indicates a failure with the `spender` to be approved. Used in approvals.",
          "params": {
            "spender": "Address that may be allowed to operate on tokens without being their owner."
          }
        }
      ],
      "EnforcedPause()": [
        {
          "details": "The operation failed because the contract is paused."
        }
      ],
      "ExpectedPause()": [
        {
          "details": "The operation failed because the contract is not paused."
        }
      ],
      "OwnableInvalidOwner(address)": [
        {
          "details": "The owner is not a valid owner account. (eg. `address(0)`)"
        }
      ],
      "OwnableUnauthorizedAccount(address)": [
        {
          "details": "The caller account is not authorized to perform an operation."
        }
      ]
    },
    "events": {
      "Approval(address,address,uint256)": {
        "details": "Emitted when the allowance of a `spender` for an `owner` is set by a call to {approve}. `value` is the new allowance."
      },
      "Paused(address)": {
        "details": "Emitted when the pause is triggered by `account`."
      },
      "TokensBurned(address,uint256,string)": {
        "params": {
          "amount": "销毁数量（wei 单位）",
          "from": "被销毁地址",
          "reason": "销毁原因说明"
        }
      },
      "TokensMinted(address,uint256,string)": {
        "params": {
          "amount": "铸造数量（wei 单位）",
          "reason": "铸造原因说明",
          "to": "接收方地址"
        }
      },
      "TransactionBlocked(address,address,string)": {
        "params": {
          "from": "发送方地址",
          "reason": "阻止原因（人类可读字符串）",
          "to": "接收方地址"
        }
      },
      "Transfer(address,address,uint256)": {
        "details": "Emitted when `value` tokens are moved from one account (`from`) to another (`to`). Note that `value` may be zero."
      },
      "Unpaused(address)": {
        "details": "Emitted when the pause is lifted by `account`."
      },
      "WhitelistUpdated(address,bool)": {
        "params": {
          "account": "目标地址",
          "status": "true=加入白名单, false=移出白名单"
        }
      }
    },
    "kind": "dev",
    "methods": {
      "addToWhitelist(address)": {
        "params": {
          "account": "要加入白名单的地址"
        }
      },
      "allowance(address,address)": {
        "details": "See {IERC20-allowance}."
      },
      "approve(address,uint256)": {
        "details": "See {IERC20-approve}. NOTE: If `value` is the maximum `uint256`, the allowance is not updated on `transferFrom`. This is semantically equivalent to an infinite approval. Requirements: - `spender` cannot be the zero address."
      },
      "balanceOf(address)": {
        "details": "See {IERC20-balanceOf}."
      },
      "burn(address,uint256)": {
        "params": {
          "amount": "销毁数量",
          "from": "被销毁代币的地址"
        }
      },
      "constructor": {
        "details": "OZ v5 要求: Ownable(admin_) 显式传入初始管理员",
        "params": {
          "admin_": "管理员地址 (同时获得初始代币 + 白名单资格)",
          "initialSupply_": "初始铸造量 (wei 单位，必须 > 0)",
          "name_": "代币名称 (e.g. \"RWA ETF Gold\")",
          "symbol_": "代币符号 (e.g. \"RWAG\")"
        }
      },
      "decimals()": {
        "details": "Returns the number of decimals used to get its user representation. For example, if `decimals` equals `2`, a balance of `505` tokens should be displayed to a user as `5.05` (`505 / 10 ** 2`). Tokens usually opt for a value of 18, imitating the relationship between Ether and Wei. This is the default value returned by this function, unless it's overridden. NOTE: This information is only used for _display_ purposes: it in no way affects any of the arithmetic of the contract, including {IERC20-balanceOf} and {IERC20-transfer}."
      },
      "getBlockedTransaction(uint256)": {
        "params": {
          "index": "交易索引 (0-based)"
        },
        "returns": {
          "amount": "   金额",
          "from": "     发送方",
          "reason": "   阻止原因",
          "timestamp": "时间戳",
          "to": "       接收方"
        }
      },
      "getBlockedTransactionCount()": {
        "returns": {
          "_0": "历史上被阻止的交易计数"
        }
      },
      "getWhitelistCount()": {
        "returns": {
          "_0": "当前白名单中的地址数量"
        }
      },
      "getWhitelistedAddresses()": {
        "returns": {
          "_0": "白名单地址数组"
        }
      },
      "isWhitelisted(address)": {
        "params": {
          "account": "查询的地址"
        },
        "returns": {
          "_0": "是否在白名单中"
        }
      },
      "mint(address,uint256)": {
        "params": {
          "amount": "铸造数量",
          "to": "接收铸造代币的地址"
        }
      },
      "name()": {
        "details": "Returns the name of the token."
      },
      "owner()": {
        "details": "Returns the address of the current owner."
      },
      "paused()": {
        "details": "Returns true if the contract is paused, and false otherwise."
      },
      "removeFromWhitelist(address)": {
        "params": {
          "account": "要移出白名单的地址"
        }
      },
      "renounceOwnership()": {
        "details": "Leaves the contract without owner. It will not be possible to call `onlyOwner` functions. Can only be called by the current owner. NOTE: Renouncing ownership will leave the contract without an owner, thereby disabling any functionality that is only available to the owner."
      },
      "symbol()": {
        "details": "Returns the symbol of the token, usually a shorter version of the name."
      },
      "totalSupply()": {
        "details": "See {IERC20-totalSupply}."
      },
      "transfer(address,uint256)": {
        "details": "See {IERC20-transfer}. Requirements: - `to` cannot be the zero address. - the caller must have a balance of at least `value`."
      },
      "transferFrom(address,address,uint256)": {
        "details": "See {IERC20-transferFrom}. Emits an {Approval} event indicating the updated allowance. This is not required by the EIP. See the note at the beginning of {ERC20}. NOTE: Does not update the allowance if the current allowance is the maximum `uint256`. Requirements: - `from` and `to` cannot be the zero address. - `from` must have a balance of at least `value`. - the caller must have allowance for ``from``'s tokens of at least `value`."
      },
      "transferOwnership(address)": {
        "details": "Transfers ownership of the contract to a new account (`newOwner`). Can only be called by the current owner."
      },
      "tryTransfer(address,uint256)": {
        "details": "实现逻辑:   1. 预检查暂停状态 → 不满足则记录 + return false   2. 预检查发送方白名单 → 不满足则记录 + return false   3. 预检查接收方白名单 → 不满足则记录 + return false   4. 全部通过 → 调用内部 _transfer()（会经过 _update 但必然通过）   与 transfer() 的区别:   ┌──────────────┬─────────────────┬──────────────────┐   │              │ transfer()      │ tryTransfer()    │   ├──────────────┼─────────────────┼──────────────────┤   │ 失败行为     │ revert (回滚)   │ return false     │   │ Gas 退还     │ 是              │ 否（已消耗）     │   │ 事件         │ 无              │ TransactionBlocked│   │ 审计记录     │ 无（tx失败）    │ 有（链上存储）   │   └──────────────┴─────────────────┴──────────────────┘",
        "params": {
          "amount": "转账数量",
          "to": "接收方地址"
        },
        "returns": {
          "success": "转账是否成功"
        }
      }
    },
    "stateVariables": {
      "_blockedTransactions": {
        "details": "被阻止交易的完整记录数组"
      },
      "_blockedTxCount": {
        "details": "被阻止交易的计数器"
      },
      "_whitelist": {
        "details": "白名单映射：address → 是否在白名单中"
      },
      "_whitelistedAddresses": {
        "details": "白名单地址数组（用于链上枚举遍历）"
      }
    },
    "title": "RWAToken — 合规型 RWA (Real World Asset) ETF 代币",
    "version": 1
  },
  "userdoc": {
    "events": {
      "TokensBurned(address,uint256,string)": {
        "notice": "代币销毁时触发"
      },
      "TokensMinted(address,uint256,string)": {
        "notice": "代币铸造时触发"
      },
      "TransactionBlocked(address,address,string)": {
        "notice": "转账被合规规则阻止时触发（不回滚，仅记录）"
      },
      "WhitelistUpdated(address,bool)": {
        "notice": "白名单状态变更时触发"
      }
    },
    "kind": "user",
    "methods": {
      "addToWhitelist(address)": {
        "notice": "将地址加入白名单（仅管理员）"
      },
      "burn(address,uint256)": {
        "notice": "从指定地址销毁代币（仅管理员，目标须在白名单中）"
      },
      "constructor": {
        "notice": "部署 RWA 代币合约"
      },
      "getBlockedTransaction(uint256)": {
        "notice": "获取指定索引的被阻止交易详情"
      },
      "getBlockedTransactionCount()": {
        "notice": "获取被阻止的交易总数"
      },
      "getWhitelistCount()": {
        "notice": "获取白名单地址总数"
      },
      "getWhitelistedAddresses()": {
        "notice": "获取所有白名单地址（便于前端展示）"
      },
      "isWhitelisted(address)": {
        "notice": "查询地址是否在白名单中"
      },
      "mint(address,uint256)": {
        "notice": "铸造代币到指定地址（仅管理员，目标须在白名单中）"
      },
      "pause()": {
        "notice": "紧急暂停所有代币转移（仅管理员）"
      },
      "removeFromWhitelist(address)": {
        "notice": "将地址移出白名单（仅管理员）"
      },
      "tryTransfer(address,uint256)": {
        "notice": "尝试转账 — 被阻止时不回滚，而是记录并返回 false"
      },
      "unpause()": {
        "notice": "恢复代币转移（仅管理员）"
      }
    },
    "notice": "实现白名单准入、软失败转账、完整审计日志的 ERC-20 代币 ┌──────────────────────────────────────────────────────────┐ │  架构概览 (Architecture Overview)                         │ │                                                          │ │  OpenZeppelin v5 继承链:                                  │ │    ERC20        — 标准代币逻辑                            │ │    Ownable      — 管理员权限 (constructor 传入 admin)      │ │    Pausable     — 紧急暂停机制                            │ │    IRWAToken    — RWA 合规接口                            │ │                                                          │ │  核心机制:                                                │ │    _update()      → 拦截所有转账，硬性白名单检查           │ │    tryTransfer()  → 软失败路径，不 revert 只记录           │ │    BlockedTx[]    → 链上审计日志                          │ └──────────────────────────────────────────────────────────┘",
    "version": 1
  },
  "storageLayout": {
    "storage": [
      {
        "astId": 307,
        "contract": "contracts/RWAToken.sol:RWAToken",
        "label": "_balances",
        "offset": 0,
        "slot": "0",
        "type": "t_mapping(t_address,t_uint256)"
      },
      {
        "astId": 313,
        "contract": "contracts/RWAToken.sol:RWAToken",
        "label": "_allowances",
        "offset": 0,
        "slot": "1",
        "type": "t_mapping(t_address,t_mapping(t_address,t_uint256))"
      },
      {
        "astId": 315,
        "contract": "contracts/RWAToken.sol:RWAToken",
        "label": "_totalSupply",
        "offset": 0,
        "slot": "2",
        "type": "t_uint256"
      },
      {
        "astId": 317,
        "contract": "contracts/RWAToken.sol:RWAToken",
        "label": "_name",
        "offset": 0,
        "slot": "3",
        "type": "t_string_storage"
      },
      {
        "astId": 319,
        "contract": "contracts/RWAToken.sol:RWAToken",
        "label": "_symbol",
        "offset": 0,
        "slot": "4",
        "type": "t_string_storage"
      },
      {
        "astId": 8,
        "contract": "contracts/RWAToken.sol:RWAToken",
        "label": "_owner",
        "offset": 0,
        "slot": "5",
        "type": "t_address"
      },
      {
        "astId": 942,
        "contract": "contracts/RWAToken.sol:RWAToken",
        "label": "_paused",
        "offset": 20,
        "slot": "5",
        "type": "t_bool"
      },
      {
        "astId": 1082,
        "contract": "contracts/RWAToken.sol:RWAToken",
        "label": "_whitelist",
        "offset": 0,
        "slot": "6",
        "type": "t_mapping(t_address,t_bool)"
      },
      {
        "astId": 1086,
        "contract": "contracts/RWAToken.sol:RWAToken",
        "label": "_whitelistedAddresses",
        "offset": 0,
        "slot": "7",
        "type": "t_array(t_address)dyn_storage"
      },
      {
        "astId": 1089,
        "contract": "contracts/RWAToken.sol:RWAToken",
        "label": "_blockedTxCount",
        "offset": 0,
        "slot": "8",
        "type": "t_uint256"
      },
      {
        "astId": 1094,
        "contract": "contracts/RWAToken.sol:RWAToken",
        "label": "_blockedTransactions",
        "offset": 0,
        "slot": "9",
        "type": "t_array(t_struct(BlockedTransaction)1077_storage)dyn_storage"
      }
    ],
    "types": {
      "t_address": {
        "encoding": "inplace",
        "label": "address",
        "numberOfBytes": "20"
      },
      "t_array(t_address)dyn_storage": {
        "base": "t_address",
        "encoding": "dynamic_array",
        "label": "address[]",
        "numberOfBytes": "32"
      },
      "t_array(t_struct(BlockedTransaction)1077_storage)dyn_storage": {
        "base": "t_struct(BlockedTransaction)1077_storage",
        "encoding": "dynamic_array",
        "label": "struct RWAToken.BlockedTransaction[]",
        "numberOfBytes": "32"
      },
      "t_bool": {
        "encoding": "inplace",
        "label": "bool",
        "numberOfBytes": "1"
      },
      "t_mapping(t_address,t_bool)": {
        "encoding": "mapping",
        "key": "t_address",
        "label": "mapping(address => bool)",
        "numberOfBytes": "32",
        "value": "t_bool"
      },
      "t_mapping(t_address,t_mapping(t_address,t_uint256))": {
        "encoding": "mapping",
        "key": "t_address",
        "label": "mapping(address => mapping(address => uint256))",
        "numberOfBytes": "32",
        "value": "t_mapping(t_address,t_uint256)"
      },
      "t_mapping(t_address,t_uint256)": {
        "encoding": "mapping",
        "key": "t_address",
        "label": "mapping(address => uint256)",
        "numberOfBytes": "32",
        "value": "t_uint256"
      },
      "t_string_storage": {
        "encoding": "bytes",
        "label": "string",
        "numberOfBytes": "32"
      },
      "t_struct(BlockedTransaction)1077_storage": {
        "encoding": "inplace",
        "label": "struct RWAToken.BlockedTransaction",
        "members": [
          {
            "astId": 1068,
            "contract": "contracts/RWAToken.sol:RWAToken",
            "label": "from",
            "offset": 0,
            "slot": "0",
            "type": "t_address"
          },
          {
            "astId": 1070,
            "contract": "contracts/RWAToken.sol:RWAToken",
            "label": "to",
            "offset": 0,
            "slot": "1",
            "type": "t_address"
          },
          {
            "astId": 1072,
            "contract": "contracts/RWAToken.sol:RWAToken",
            "label": "amount",
            "offset": 0,
            "slot": "2",
            "type": "t_uint256"
          },
          {
            "astId": 1074,
            "contract": "contracts/RWAToken.sol:RWAToken",
            "label": "reason",
            "offset": 0,
            "slot": "3",
            "type": "t_string_storage"
          },
          {
            "astId": 1076,
            "contract": "contracts/RWAToken.sol:RWAToken",
            "label": "timestamp",
            "offset": 0,
            "slot": "4",
            "type": "t_uint256"
          }
        ],
        "numberOfBytes": "160"
      },
      "t_uint256": {
        "encoding": "inplace",
        "label": "uint256",
        "numberOfBytes": "32"
      }
    }
  }
}